:020020001D18A9
:160000000000810921170310FE1482002F1C1800FF1211181218BA
:160024000217C00519180017E000000902171F10800B151811188E
:02002200341A8E
:20003A003200C0073200450D2B18C307C005C2070110C20500178006C305450E3300C00506
:20005A0033003B001C178300521443140114401442140F140014881413140B140001390093
:20007A00C207E105C307E2053800E207C005E1073A003C1CD205C007D3053C1C520632004E
:20009A00D307C00433005006C007D106200C4A183A00E1072015C40590003A00B00C01014B
:2000BA0000015B1CD405850B641886096F18C6070511200C0609C6070511200C6F18D40724
:2000DA00C5058609C5073A00A10956183A008209830900178C00211786008009C00000177D
:2000FA0085000417840038003A0020179000D917910020178D00920000179A009E009C00C7
:20011A0097008900711C5B1CC50586093A0000173200D507C005330070029C1880175002E2
:20013A009F1840153002A21801151002A5181015E10556183A00D607D505941C0317D005BF
:20015A009109461C08174405C40790002C17D0050117D105461C711C4617D00591094618A7
:20017A003A000A17D605A81C5A17D0059109461C0A17D605A8183A00C9070012CD18E01874
:20019A00D7070112D4180B17D605A8183A00D7070212DB180C17D605A8183A00D7070312A1
:2001BA00E018BE183A00D7070012E5180A171319D7070112EA1801171319D7070212EF18B3
:2001DA0002171319D7070312F41803171319D7070412F91804171319D7070512FE18051708
:2001FA001319D7070612031906171319D7070712081907171319D70708120D190817131993
:20021A00D70709123A00091713193A00D605A8183A008709880989098A098B098C098D0931
:20023A008E098F093A000417C705880989098A098B098C098D098E098F093A009809990933
:20025A00D907C005D807C811C0071100200D3A000117D0059109461C5E1C00123D194019C4
:20027A00180919082D19980999092D193A00C8070A124A199709C91C5519C8070111200CCB
:20029A00551909174806200C5519C807D705C91C16193A00C70700126619DA0700123A0049
:2002BA000117C7058A098B098E098F09880989093A00C7070112A219DA0700128319CB0790
:2002DA00C005CA076011EA17C009C006200D77190A090B08CA07DB05CB07DC0588175B0626
:2002FA001317DC06200D3A0020193A00CA07DD05CB07DE05DD071411DE071100200D8F19C2
:20031A0016193A00DD07E8110317C005DE07C006200C991901179A190017C9050217C70580
:20033A008E098F098C098D093A00C7070212DF19DA070012A919D019CF07C005CE076011B6
:20035A00EA17C009C006200DB4190E090F08C8070012C219CF07C005CE0784110317C00927
:20037A00C006200C3A0016193A00C8070012C6193A00CF07C005CE079611C0071100200CB9
:20039A003A0044193A00CF07C005CE070811C0071100200DDA1920193A000317C7058C0903
:2003BA008D093A00C7070312121ADA070012FC19CD07C005CC076011EA17C009C006200DA2
:2003DA00F0190C090D08CC07DF05CD07E00504175F060117E006200D3A0020193A00CD0734
:2003FA00C005CC070811C0071100200C0B1AC8070A11200D0A1A08090B1A201D0217C70576
:20041A008E098F098C098D093A00C7070412321ADA070012191A2F1ACF07C005CE076011AE
:20043A00EA17C009C006200D241A0E090F08CF07C005CE07F4110117C009C006200C3A00F7
:20045A0016193A008E098F093A0016193A00821C741C2B1D161D0117D0059109461C5E1C3B
:08047A00DA05571D381A3A009B
:00000001FF
