:020000000B28CB
:10000800DE00030E8312AA000A08AB00AB280C28F6
:100018008312A001A101A201A301A401A501A601C7
:10002800A701A801A9018301192883169F01083097
:1000380085008130810007308312990085010B11FA
:100048008B168B172308031D33282208031D33281A
:100058002108031D3328DD302002031C8C2883125D
:1000680024032504031D8C280A3028062904031DAF
:100078006228A801A90162288516452885125E28EC
:100088008512051252288512051256288512051662
:100098005A28851205165F288512051605145B284F
:1000A8008512051605146028851605120510851099
:1000B8007228851605120510851472282908003A39
:1000C800031967287228280884000A3004020318D4
:1000D800722800308A00BD30040782001030AC005E
:1000E800AC0B74280000831205150330AE008A306B
:1000F800AD005530AC00AC0B7F28AD0B7F28AE0BA4
:100108007F28862883128501A401A501A801A901D9
:100118008312851D982826082704031D9828A60100
:10012800A60AA701A401A5018519262826032704E4
:10013800031D2628A601A701A001A101A201A30170
:10014800A80A0319A90AA401A40AA50126288B1A3A
:100158000B1DB628A00A0319A10A0319A20A03193C
:10016800A30A0B112B088A002A0E8300DE0E5E0EEE
:10017800090040284228442847284A284D28502862
:06018800542858285D28F0
:02400E009431EB
:00000001FF
