:100000000B28FF3FFF3FFF3FDE00030E8312A000DF
:100010000A08A100F5290C288313393084004E30DA
:100020004A228301132883169F0107308312990007
:100030000830831685008312850181308316810084
:100040000B118B168B178312050CAC00AC0C2C0C0F
:100050000139CB00CA01050CAC00AC0C2C0C0139E9
:10006000B80038084B0603193628372847280B30C4
:10007000AD006230AC00AC0B3B28AD0B3B28000060
:100080008312050CAC00AC0C2C0C0139B8004B03EE
:10009000031D4B284C2864283808031D502851287C
:1000A0006428CB014A08031D5628572864280130CC
:1000B000CA004808C0004708BF004608BE004508FF
:1000C000BD00C901CD01CC014B08031D682869287A
:1000D00014293803031D6D286E2814290130CB0024
:1000E0004808B7004708B6004608B5004508B40000
:1000F0004A03031D7C287D28CE283408AC0035082F
:10010000AD003608AE003708AF003D08AC023E082F
:10011000031C3E0F8C288D28AD023F08031C3F0FA7
:1001200092289328AE024008031C400F9828992873
:10013000AF022F08B3002E08B2002D08B1002C0822
:10014000B0003308031DB2283208031DB228033063
:100150003102031DAF28E8303002031DAF28031819
:10016000B228B4280130B52800308312C90001300C
:10017000CD000130CC000030C4000030C30000309E
:10018000C2000030C1003708BC003608BB0035088B
:10019000BA003408B9000230CA00142902304A06F5
:1001A000031DD328D42814293408AC003508AD0029
:1001B0003608AE003708AF003908AC023A08031C15
:1001C0003A0FE328E428AD023B08031C3B0FE92863
:1001D000EA28AE023C08031C3C0FEF28F028AF02CF
:1001E0002F08031D01292E08031D01292D08031DB9
:1001F000012919302C02031DFD28031C00290129A7
:10020000142901308312CD073708BC003608BB0023
:100210003508BA003408B9000030C4000030C3000B
:100220000030C2000030C100023083124A06031DB4
:100230001A291B293C294C03031D1F2920293C296D
:100240004408031D31294308031D31294208031DB9
:100250003129DD304102031D2D29031C30293129AC
:100260003C2983124908A9004D084A218312CD0177
:10027000CC01C9010330CA00033083124A06031DB2
:10028000422943292B283803031D472948292B28B5
:100290002A280B288312AA000A302A02031C51299B
:1002A00052295329AA0129080319572958298F29A6
:1002B00002302A06031D5D295E2965292C30A50020
:1002C0000130A6000C302122B5292A03031D69291B
:1002D0006A298F292C30A5000130A6000B3021227D
:1002E000B5290A30AB00AF290130AB00AF2902308D
:1002F000AB00AF290330AB00AF290430AB00AF290E
:100300000530AB00AF290630AB00AF290730AB009A
:10031000AF290830AB00AF290930AB00AF292A085C
:10032000003A03197129013A03197429033A031990
:100330007729013A03197A29073A03197D29013AE5
:1003400003198029033A03198329013A03198629DD
:100350000F3A03198929013A03198C2971292C3084
:10036000A5000130A6002B08212208008312A4005A
:100370002408A20003300310A20CFF3E031DBB297A
:1003800022080139A300A30EA30D05082306DF39B7
:10039000230685002408A20002300310A20CFF3EB1
:1003A000031DCD2922080139A300A30E0508230649
:1003B000EF39230685002408A20001300310A20CA7
:1003C000FF3E031DDE2901302205A3000508230698
:1003D000FE392306850024080139A200A20D050874
:1003E0002206FD392206850008008B1EF829F9290E
:1003F0001A2A0B1DFC29FD291A2A0130C5070030D5
:1004000003180130C607003003180130C707003059
:1004100003180130C8070130C1070030031801304C
:10042000C207003003180130C30700300318013041
:10043000C4070B1121088A00200E8300DE0E5E0E19
:1004400009008312A8002808B62183120511033081
:10045000A700A70B292A83120515352AC730A70044
:10046000312AA70B302A342A352A01308312A502FB
:100470000030031CA603A602250A031D432A260AF0
:10048000031D432A442A2E2A051185120512051040
:100490008510080064008001840A040603190034F2
:1004A00004064B2AFF3FFF3FFF3FFF3FFF3FFF3F59
:02400E009431EB
:00000001FF
