:100000000B28FF3FFF3FFF3FDE00030E8312AA00D5
:100010000A08AB000B290C288312A001A101A20140
:10002000A301A401A501A601A701A801A9018301BB
:10003000192883169F010830850081308100073020
:100040008312990085010B118B168B172308031D52
:1000500037282208031D37282108031D3728DD30E3
:100060002002031D3328031C36283728C02883129A
:1000700024032504031D3D283E28C0282908803A72
:10008000DF0080305F02031D47280A302802031C6E
:100090004A284B2881288312A801A90181288516A6
:1000A000051205148510A728851205120510851460
:1000B000A7288512051205148510A7288512051298
:1000C00005148514A7288512051605108510A72884
:1000D0008512051605108514A72885120516051426
:1000E0008510A7288512051605148514A7288516DE
:1000F000051205108510A728851605120510851410
:10010000A72883122908003A03198728A728280856
:10011000003A03194F28013A03195428033A0319E6
:100120005928013A03195E28073A03196328013A4E
:1001300003196828033A03196D28013A0319722834
:100140000F3A03197728013A03197C28A7281030A1
:10015000AC00AC0BA9280000831205150230AE00DC
:100160008630AD009930AC00AC0BB428AD0BB42890
:10017000AE0BB42883128501A401A501A801A90131
:100180008312851DC428C528DE2826082704031DE0
:10019000CA28CB28DE280730AD007D30AC00AC0B80
:1001A000CF28AD0BCF288312851DD728D828DE286D
:1001B0000130A6000030A700A401A5018519E1289F
:1001C000E228262826032704031DE728E8282628F6
:1001D0000730AD007D30AC00AC0BEC28AD0BEC284B
:1001E00083128519F428F5282628A601A7010030D6
:1001F000A3000030A2000030A1000030A0000130B8
:10020000A8070318A90A0030A9070130A40000308C
:10021000A50026280B288B1E0E290F2922290B1D2D
:100220001229132922290130A007003003180130B8
:10023000A107003003180130A20700300318013075
:10024000A3070B112B088A002A0E8300DE0E5E0E18
:100250000900FF3FFF3FFF3FFF3FFF3FFF3FFF3FE3
:02400E009431EB
:00000001FF
